{
  "_format": "hh-sol-artifact-1",
  "contractName": "MultiSwap",
  "sourceName": "contracts/MultiSwap.sol",
  "abi": [
    {
      "inputs": [],
      "stateMutability": "nonpayable",
      "type": "constructor"
    },
    {
      "inputs": [],
      "name": "owner",
      "outputs": [
        {
          "internalType": "address",
          "name": "",
          "type": "address"
        }
      ],
      "stateMutability": "view",
      "type": "function"
    },
    {
      "inputs": [
        {
          "internalType": "uint256",
          "name": "amountIn",
          "type": "uint256"
        },
        {
          "internalType": "address[]",
          "name": "pairs",
          "type": "address[]"
        },
        {
          "internalType": "address[]",
          "name": "path",
          "type": "address[]"
        },
        {
          "internalType": "uint256[]",
          "name": "amountOutsMin",
          "type": "uint256[]"
        },
        {
          "internalType": "uint256",
          "name": "deadline",
          "type": "uint256"
        }
      ],
      "name": "swap",
      "outputs": [],
      "stateMutability": "nonpayable",
      "type": "function"
    },
    {
      "inputs": [
        {
          "internalType": "address",
          "name": "token",
          "type": "address"
        },
        {
          "internalType": "uint256",
          "name": "amount",
          "type": "uint256"
        }
      ],
      "name": "withdraw",
      "outputs": [],
      "stateMutability": "nonpayable",
      "type": "function"
    }
  ],
  "bytecode": "0x60a060405234801561001057600080fd5b5033606081901b608052610a7061003b600039806101b552806101e752806104335250610a706000f3fe608060405234801561001057600080fd5b50600436106100415760003560e01c80638da5cb5b14610046578063c9ba946a1461006a578063f3fef3a314610187575b600080fd5b61004e6101b3565b604080516001600160a01b039092168252519081900360200190f35b610185600480360360a081101561008057600080fd5b813591908101906040810160208201356401000000008111156100a257600080fd5b8201836020820111156100b457600080fd5b803590602001918460208302840111640100000000831117156100d657600080fd5b9193909290916020810190356401000000008111156100f457600080fd5b82018360208201111561010657600080fd5b8035906020019184602083028401116401000000008311171561012857600080fd5b91939092909160208101903564010000000081111561014657600080fd5b82018360208201111561015857600080fd5b8035906020019184602083028401116401000000008311171561017a57600080fd5b9193509150356101d7565b005b6101856004803603604081101561019d57600080fd5b506001600160a01b038135169060200135610431565b7f000000000000000000000000000000000000000000000000000000000000000081565b80428110156101e557600080fd5b7f00000000000000000000000000000000000000000000000000000000000000006001600160a01b0316331461021a57600080fd5b606061028b89898080602002602001604051908101604052809392919081815260200183836020028082843760009201919091525050604080516020808d0282810182019093528c82529093508c92508b9182918501908490808284376000920191909152508f92506104eb915050565b905060015b868110156102d7578585600183038181106102a757fe5b905060200201358282815181106102ba57fe5b602002602001015110156102cf575050610426565b600101610290565b50868660008181106102e557fe5b905060200201356001600160a01b03166001600160a01b031663a9059cbb8a8a600081811061031057fe5b905060200201356001600160a01b03168360008151811061032d57fe5b60200260200101516040518363ffffffff1660e01b815260040180836001600160a01b03166001600160a01b0316815260200182815260200192505050602060405180830381600087803b15801561038457600080fd5b505af1158015610398573d6000803e3d6000fd5b505050506040513d60208110156103ae57600080fd5b50516103b657fe5b610424818a8a8080602002602001604051908101604052809392919081815260200183836020028082843760009201919091525050604080516020808e0282810182019093528d82529093508d92508c9182918501908490808284376000920191909152506105f392505050565b505b505050505050505050565b7f00000000000000000000000000000000000000000000000000000000000000006001600160a01b0316331461046657600080fd5b6040805163a9059cbb60e01b81523360048201526024810183905290516001600160a01b0384169163a9059cbb9160448083019260209291908290030181600087803b1580156104b557600080fd5b505af11580156104c9573d6000803e3d6000fd5b505050506040513d60208110156104df57600080fd5b50516104e757fe5b5050565b6060835160010167ffffffffffffffff8111801561050857600080fd5b50604051908082528060200260200182016040528015610532578160200160208202803683370190505b509050818160008151811061054357fe5b60200260200101818152505060005b84518110156105eb576000806105a587848151811061056d57fe5b602002602001015187858151811061058157fe5b602002602001015188866001018151811061059857fe5b60200260200101516107f0565b915091506105c78484815181106105b857fe5b602002602001015183836108b4565b8484600101815181106105d657fe5b60209081029190910101525050600101610552565b509392505050565b60005b60018251038110156107ea57600061063783838151811061061357fe5b602002602001015184846001018151811061062a57fe5b602002602001015161093f565b509050600080826001600160a01b031685858151811061065357fe5b60200260200101516001600160a01b0316146106875786846001018151811061067857fe5b602002602001015160006106a1565b600087856001018151811061069857fe5b60200260200101515b915091508584815181106106b157fe5b60200260200101516001600160a01b031663022c0d9f8383600289510388106106da57306106f2565b8988600101815181106106e957fe5b60200260200101515b6040805160008082526020820190925290506040518563ffffffff1660e01b815260040180858152602001848152602001836001600160a01b03166001600160a01b0316815260200180602001828103825283818151815260200191508051906020019080838360005b8381101561077457818101518382015260200161075c565b50505050905090810190601f1680156107a15780820380516001836020036101000a031916815260200191505b5095505050505050600060405180830381600087803b1580156107c357600080fd5b505af11580156107d7573d6000803e3d6000fd5b5050600190950194506105f69350505050565b50505050565b60008060006107ff858561093f565b509050600080876001600160a01b0316630902f1ac6040518163ffffffff1660e01b815260040160606040518083038186803b15801561083e57600080fd5b505afa158015610852573d6000803e3d6000fd5b505050506040513d606081101561086857600080fd5b5080516020909101516dffffffffffffffffffffffffffff91821693501690506001600160a01b03878116908416146108a25780826108a5565b81815b90999098509650505050505050565b600080841180156108c55750600083115b80156108d15750600082115b6108da57600080fd5b60006108ee856103e563ffffffff61097016565b90506000610902828563ffffffff61097016565b905060006109288361091c886103e863ffffffff61097016565b9063ffffffff6109e216565b905080828161093357fe5b04979650505050505050565b600080826001600160a01b0316846001600160a01b031610610962578284610965565b83835b909590945092505050565b600081158061098b5750508082028282828161098857fe5b04145b6109dc576040805162461bcd60e51b815260206004820152601460248201527f64732d6d6174682d6d756c2d6f766572666c6f77000000000000000000000000604482015290519081900360640190fd5b92915050565b808201828110156109dc576040805162461bcd60e51b815260206004820152601460248201527f64732d6d6174682d6164642d6f766572666c6f77000000000000000000000000604482015290519081900360640190fdfea264697066735822122094c3b7a81f7b7709bf865cc2b1aa0fe244f470f4da06344a20bc3f92029abf4b64736f6c63430006060033",
  "linkReferences": {},
  "deployedLinkReferences": {}
}