{
  "_format": "hh-sol-artifact-1",
  "contractName": "MultiSwapV2",
  "sourceName": "contracts/MultiSwapV2.sol",
  "abi": [
    {
      "inputs": [],
      "stateMutability": "nonpayable",
      "type": "constructor"
    },
    {
      "inputs": [],
      "name": "owner",
      "outputs": [
        {
          "internalType": "address",
          "name": "",
          "type": "address"
        }
      ],
      "stateMutability": "view",
      "type": "function"
    },
    {
      "inputs": [
        {
          "internalType": "uint256",
          "name": "amountIn",
          "type": "uint256"
        },
        {
          "internalType": "address[]",
          "name": "pairs",
          "type": "address[]"
        },
        {
          "internalType": "address[]",
          "name": "path",
          "type": "address[]"
        },
        {
          "internalType": "uint256[]",
          "name": "fee",
          "type": "uint256[]"
        },
        {
          "internalType": "uint256[]",
          "name": "fee_scale",
          "type": "uint256[]"
        }
      ],
      "name": "swap",
      "outputs": [],
      "stateMutability": "nonpayable",
      "type": "function"
    },
    {
      "inputs": [
        {
          "internalType": "address[]",
          "name": "pairs",
          "type": "address[]"
        },
        {
          "internalType": "address[]",
          "name": "path",
          "type": "address[]"
        },
        {
          "internalType": "uint256[]",
          "name": "amounts",
          "type": "uint256[]"
        }
      ],
      "name": "swapExact",
      "outputs": [],
      "stateMutability": "nonpayable",
      "type": "function"
    },
    {
      "inputs": [
        {
          "internalType": "address[]",
          "name": "pairs",
          "type": "address[]"
        },
        {
          "internalType": "address[]",
          "name": "path",
          "type": "address[]"
        },
        {
          "internalType": "uint256[]",
          "name": "fee",
          "type": "uint256[]"
        },
        {
          "internalType": "uint256[]",
          "name": "fee_scale",
          "type": "uint256[]"
        }
      ],
      "name": "swapExactTokensForETH",
      "outputs": [],
      "stateMutability": "nonpayable",
      "type": "function"
    },
    {
      "inputs": [
        {
          "internalType": "address",
          "name": "token",
          "type": "address"
        },
        {
          "internalType": "uint256",
          "name": "amount",
          "type": "uint256"
        }
      ],
      "name": "withdraw",
      "outputs": [],
      "stateMutability": "nonpayable",
      "type": "function"
    }
  ],
  "bytecode": "0x60a060405234801561001057600080fd5b5033606081901b6080526114416100456000398061048152806107e152806108055280610b275280610cdf52506114416000f3fe608060405234801561001057600080fd5b50600436106100575760003560e01c80638978f7f71461005c5780638da5cb5b146101c3578063ad4bd6a7146101e7578063d9d5a9b714610345578063f3fef3a314610453575b600080fd5b6101c1600480360360a081101561007257600080fd5b81359190810190604081016020820135600160201b81111561009357600080fd5b8201836020820111156100a557600080fd5b803590602001918460208302840111600160201b831117156100c657600080fd5b919390929091602081019035600160201b8111156100e357600080fd5b8201836020820111156100f557600080fd5b803590602001918460208302840111600160201b8311171561011657600080fd5b919390929091602081019035600160201b81111561013357600080fd5b82018360208201111561014557600080fd5b803590602001918460208302840111600160201b8311171561016657600080fd5b919390929091602081019035600160201b81111561018357600080fd5b82018360208201111561019557600080fd5b803590602001918460208302840111600160201b831117156101b657600080fd5b50909250905061047f565b005b6101cb6107df565b604080516001600160a01b039092168252519081900360200190f35b6101c1600480360360808110156101fd57600080fd5b810190602081018135600160201b81111561021757600080fd5b82018360208201111561022957600080fd5b803590602001918460208302840111600160201b8311171561024a57600080fd5b919390929091602081019035600160201b81111561026757600080fd5b82018360208201111561027957600080fd5b803590602001918460208302840111600160201b8311171561029a57600080fd5b919390929091602081019035600160201b8111156102b757600080fd5b8201836020820111156102c957600080fd5b803590602001918460208302840111600160201b831117156102ea57600080fd5b919390929091602081019035600160201b81111561030757600080fd5b82018360208201111561031957600080fd5b803590602001918460208302840111600160201b8311171561033a57600080fd5b509092509050610803565b6101c16004803603606081101561035b57600080fd5b810190602081018135600160201b81111561037557600080fd5b82018360208201111561038757600080fd5b803590602001918460208302840111600160201b831117156103a857600080fd5b919390929091602081019035600160201b8111156103c557600080fd5b8201836020820111156103d757600080fd5b803590602001918460208302840111600160201b831117156103f857600080fd5b919390929091602081019035600160201b81111561041557600080fd5b82018360208201111561042757600080fd5b803590602001918460208302840111600160201b8311171561044857600080fd5b509092509050610b25565b6101c16004803603604081101561046957600080fd5b506001600160a01b038135169060200135610cdd565b7f00000000000000000000000000000000000000000000000000000000000000006001600160a01b031633146104b457600080fd5b6060610597898980806020026020016040519081016040528093929190818152602001838360200280828437600081840152601f19601f820116905080830192505050505050508b89898080602002602001604051908101604052809392919081815260200183836020028082843760009201919091525050604080516020808d0282810182019093528c82529093508c92508b91829185019084908082843760009201919091525050604080516020808c0282810182019093528b82529093508b92508a918291850190849080828437600092019190915250610d9792505050565b905089816002815181106105a757fe5b602002602001015110156105ba57600080fd5b60008054600181810183558280527f290decd9548b62a8d60345a988386fc84ba6bc95484008f6362f93160ef3e5639091018c905582518291849181106105fd57fe5b60209081029190910181015182546001810184556000938452919092200155815181908390600290811061062d57fe5b6020908102919091018101518254600181018455600093845291832090910155889088908161065857fe5b905060200201356001600160a01b03166001600160a01b031663a9059cbb8b8b600081811061068357fe5b905060200201356001600160a01b03168d6040518363ffffffff1660e01b815260040180836001600160a01b03166001600160a01b0316815260200182815260200192505050602060405180830381600087803b1580156106e357600080fd5b505af11580156106f7573d6000803e3d6000fd5b505050506040513d602081101561070d57600080fd5b505161071557fe5b6107d28180548060200260200160405190810160405280929190818152602001828054801561076357602002820191906000526020600020905b81548152602001906001019080831161074f575b50505050508b8b8080602002602001604051908101604052809392919081815260200183836020028082843760009201919091525050604080516020808f0282810182019093528e82529093508e92508d918291850190849080828437600092019190915250610f0492505050565b5050505050505050505050565b7f000000000000000000000000000000000000000000000000000000000000000081565b7f00000000000000000000000000000000000000000000000000000000000000006001600160a01b0316331461083857600080fd5b60008686600081811061084757fe5b604080516370a0823160e01b81523060048201529051602092830294909401356001600160a01b0316936370a08231935060248083019392829003018186803b15801561089357600080fd5b505afa1580156108a7573d6000803e3d6000fd5b505050506040513d60208110156108bd57600080fd5b50519050806108f7576040805162461bcd60e51b81526020600482015260016024820152603160f81b604482015290519081900360640190fd5b60606109cb8a8a8080602002602001604051908101604052809392919081815260200183836020028082843760009201919091525050604080516020808e0282810182019093528d82528894509092508d918d9182919085019084908082843760009201919091525050604080516020808e0282810182019093528d82529093508d92508c91829185019084908082843760009201919091525050604080516020808d0282810182019093528c82529093508c92508b918291850190849080828437600092019190915250610d9792505050565b9050878760008181106109da57fe5b905060200201356001600160a01b03166001600160a01b031663a9059cbb8b8b6000818110610a0557fe5b905060200201356001600160a01b031683600081518110610a2257fe5b60200260200101516040518363ffffffff1660e01b815260040180836001600160a01b03166001600160a01b0316815260200182815260200192505050602060405180830381600087803b158015610a7957600080fd5b505af1158015610a8d573d6000803e3d6000fd5b505050506040513d6020811015610aa357600080fd5b5051610aab57fe5b610b19818b8b8080602002602001604051908101604052809392919081815260200183836020028082843760009201919091525050604080516020808f0282810182019093528e82529093508e92508d918291850190849080828437600092019190915250610f0492505050565b50505050505050505050565b7f00000000000000000000000000000000000000000000000000000000000000006001600160a01b03163314610b5a57600080fd5b83836000818110610b6757fe5b905060200201356001600160a01b03166001600160a01b031663a9059cbb87876000818110610b9257fe5b905060200201356001600160a01b031684846000818110610baf57fe5b905060200201356040518363ffffffff1660e01b815260040180836001600160a01b03166001600160a01b0316815260200182815260200192505050602060405180830381600087803b158015610c0557600080fd5b505af1158015610c19573d6000803e3d6000fd5b505050506040513d6020811015610c2f57600080fd5b5051610c3757fe5b610cd582828080602002602001604051908101604052809392919081815260200183836020028082843760009201919091525050604080516020808c0282810182019093528b82529093508b92508a91829185019084908082843760009201919091525050604080516020808b0282810182019093528a82529093508a925089918291850190849080828437600092019190915250610f0492505050565b505050505050565b7f00000000000000000000000000000000000000000000000000000000000000006001600160a01b03163314610d1257600080fd5b6040805163a9059cbb60e01b81523360048201526024810183905290516001600160a01b0384169163a9059cbb9160448083019260209291908290030181600087803b158015610d6157600080fd5b505af1158015610d75573d6000803e3d6000fd5b505050506040513d6020811015610d8b57600080fd5b5051610d9357fe5b5050565b6060600284511015610dd4576040805162461bcd60e51b81526020600482015260016024820152601960f91b604482015290519081900360640190fd5b835167ffffffffffffffff81118015610dec57600080fd5b50604051908082528060200260200182016040528015610e16578160200160208202803683370190505b5090508481600081518110610e2757fe5b60200260200101818152505060005b6001855103811015610efa57600080610e8c898481518110610e5457fe5b6020026020010151888581518110610e6857fe5b6020026020010151898660010181518110610e7f57fe5b6020026020010151611101565b91509150610ed6848481518110610e9f57fe5b60200260200101518383898781518110610eb557fe5b6020026020010151898881518110610ec957fe5b60200260200101516111c5565b848460010181518110610ee557fe5b60209081029190910101525050600101610e36565b5095945050505050565b60005b60018251038110156110fb576000610f48838381518110610f2457fe5b6020026020010151848460010181518110610f3b57fe5b60200260200101516112b8565b509050600080826001600160a01b0316858581518110610f6457fe5b60200260200101516001600160a01b031614610f9857868460010181518110610f8957fe5b60200260200101516000610fb2565b6000878560010181518110610fa957fe5b60200260200101515b91509150858481518110610fc257fe5b60200260200101516001600160a01b031663022c0d9f838360028951038810610feb5730611003565b898860010181518110610ffa57fe5b60200260200101515b6040805160008082526020820190925290506040518563ffffffff1660e01b815260040180858152602001848152602001836001600160a01b03166001600160a01b0316815260200180602001828103825283818151815260200191508051906020019080838360005b8381101561108557818101518382015260200161106d565b50505050905090810190601f1680156110b25780820380516001836020036101000a031916815260200191505b5095505050505050600060405180830381600087803b1580156110d457600080fd5b505af11580156110e8573d6000803e3d6000fd5b505060019095019450610f079350505050565b50505050565b600080600061111085856112b8565b509050600080876001600160a01b0316630902f1ac6040518163ffffffff1660e01b815260040160606040518083038186803b15801561114f57600080fd5b505afa158015611163573d6000803e3d6000fd5b505050506040513d606081101561117957600080fd5b5080516020909101516dffffffffffffffffffffffffffff91821693501690506001600160a01b03878116908416146111b35780826111b6565b81815b90999098509650505050505050565b6000808611611200576040805162461bcd60e51b8152602060048201526002602482015261072760f31b604482015290519081900360640190fd5b6000851180156112105750600084115b611245576040805162461bcd60e51b81526020600482015260016024820152603360f81b604482015290519081900360640190fd5b600061126761125a848663ffffffff6112e916565b889063ffffffff61134716565b9050600061127b828763ffffffff61134716565b9050600061129f836112938a8863ffffffff61134716565b9063ffffffff6113b316565b90508082816112aa57fe5b049998505050505050505050565b600080826001600160a01b0316846001600160a01b0316106112db5782846112de565b83835b909590945092505050565b80820382811115611341576040805162461bcd60e51b815260206004820152601560248201527f64732d6d6174682d7375622d756e646572666c6f770000000000000000000000604482015290519081900360640190fd5b92915050565b60008115806113625750508082028282828161135f57fe5b04145b611341576040805162461bcd60e51b815260206004820152601460248201527f64732d6d6174682d6d756c2d6f766572666c6f77000000000000000000000000604482015290519081900360640190fd5b80820182811015611341576040805162461bcd60e51b815260206004820152601460248201527f64732d6d6174682d6164642d6f766572666c6f77000000000000000000000000604482015290519081900360640190fdfea2646970667358221220dadf90ddcd31426205be79e21754c471230be8ef621e8b547396c44a3dbcac6a64736f6c63430006060033",
  "linkReferences": {},
  "deployedLinkReferences": {}
}