{
  "_format": "hh-sol-artifact-1",
  "contractName": "MultiSwapV2",
  "sourceName": "contracts/MultiSwapV2.sol",
  "abi": [
    {
      "inputs": [],
      "stateMutability": "nonpayable",
      "type": "constructor"
    },
    {
      "inputs": [],
      "name": "owner",
      "outputs": [
        {
          "internalType": "address",
          "name": "",
          "type": "address"
        }
      ],
      "stateMutability": "view",
      "type": "function"
    },
    {
      "inputs": [
        {
          "internalType": "uint256",
          "name": "amountIn",
          "type": "uint256"
        },
        {
          "internalType": "address[]",
          "name": "pairs",
          "type": "address[]"
        },
        {
          "internalType": "address[]",
          "name": "path",
          "type": "address[]"
        },
        {
          "internalType": "uint256[]",
          "name": "fee",
          "type": "uint256[]"
        },
        {
          "internalType": "uint256[]",
          "name": "fee_scale",
          "type": "uint256[]"
        }
      ],
      "name": "swap",
      "outputs": [],
      "stateMutability": "nonpayable",
      "type": "function"
    },
    {
      "inputs": [
        {
          "internalType": "address[]",
          "name": "pairs",
          "type": "address[]"
        },
        {
          "internalType": "address[]",
          "name": "path",
          "type": "address[]"
        },
        {
          "internalType": "uint256[]",
          "name": "amounts",
          "type": "uint256[]"
        }
      ],
      "name": "swapExact",
      "outputs": [],
      "stateMutability": "nonpayable",
      "type": "function"
    },
    {
      "inputs": [
        {
          "internalType": "address",
          "name": "token",
          "type": "address"
        },
        {
          "internalType": "uint256",
          "name": "amount",
          "type": "uint256"
        }
      ],
      "name": "withdraw",
      "outputs": [],
      "stateMutability": "nonpayable",
      "type": "function"
    }
  ],
  "bytecode": "0x60a060405234801561001057600080fd5b5033606081901b6080526111bf6100406000398061031852806107f2528061081652806109fa52506111bf6000f3fe608060405234801561001057600080fd5b506004361061004c5760003560e01c80638978f7f7146100515780638da5cb5b146101b8578063d9d5a9b7146101dc578063f3fef3a3146102ea575b600080fd5b6101b6600480360360a081101561006757600080fd5b81359190810190604081016020820135600160201b81111561008857600080fd5b82018360208201111561009a57600080fd5b803590602001918460208302840111600160201b831117156100bb57600080fd5b919390929091602081019035600160201b8111156100d857600080fd5b8201836020820111156100ea57600080fd5b803590602001918460208302840111600160201b8311171561010b57600080fd5b919390929091602081019035600160201b81111561012857600080fd5b82018360208201111561013a57600080fd5b803590602001918460208302840111600160201b8311171561015b57600080fd5b919390929091602081019035600160201b81111561017857600080fd5b82018360208201111561018a57600080fd5b803590602001918460208302840111600160201b831117156101ab57600080fd5b509092509050610316565b005b6101c06107f0565b604080516001600160a01b039092168252519081900360200190f35b6101b6600480360360608110156101f257600080fd5b810190602081018135600160201b81111561020c57600080fd5b82018360208201111561021e57600080fd5b803590602001918460208302840111600160201b8311171561023f57600080fd5b919390929091602081019035600160201b81111561025c57600080fd5b82018360208201111561026e57600080fd5b803590602001918460208302840111600160201b8311171561028f57600080fd5b919390929091602081019035600160201b8111156102ac57600080fd5b8201836020820111156102be57600080fd5b803590602001918460208302840111600160201b831117156102df57600080fd5b509092509050610814565b6101b66004803603604081101561030057600080fd5b506001600160a01b0381351690602001356109f8565b7f00000000000000000000000000000000000000000000000000000000000000006001600160a01b03163314610377576040805162461bcd60e51b81526020600482015260016024820152606360f81b604482015290519081900360640190fd5b606061045a898980806020026020016040519081016040528093929190818152602001838360200280828437600081840152601f19601f820116905080830192505050505050508b89898080602002602001604051908101604052809392919081815260200183836020028082843760009201919091525050604080516020808d0282810182019093528c82529093508c92508b91829185019084908082843760009201919091525050604080516020808c0282810182019093528b82529093508b92508a918291850190849080828437600092019190915250610ade92505050565b9050898160028151811061046a57fe5b6020026020010151106107e45760008054600181810183558280527f290decd9548b62a8d60345a988386fc84ba6bc95484008f6362f93160ef3e5639091018c905582518291849181106104ba57fe5b6020908102919091018101518254600181018455600093845291909220015581518190839060029081106104ea57fe5b60209081029190910181015182546001810184556000938452918320909101558888828161051457fe5b604080516370a0823160e01b81523060048201529051602092830294909401356001600160a01b0316936370a08231935060248083019392829003018186803b15801561056057600080fd5b505afa158015610574573d6000803e3d6000fd5b505050506040513d602081101561058a57600080fd5b50519050888860008161059957fe5b905060200201356001600160a01b03166001600160a01b031663a9059cbb8c8c60008181106105c457fe5b905060200201356001600160a01b03168e6040518363ffffffff1660e01b815260040180836001600160a01b03166001600160a01b0316815260200182815260200192505050602060405180830381600087803b15801561062457600080fd5b505af1158015610638573d6000803e3d6000fd5b505050506040513d602081101561064e57600080fd5b505161065657fe5b610724828054806020026020016040519081016040528092919081815260200182805480156106a457602002820191906000526020600020905b815481526020019060010190808311610690575b50505050508c8c80806020026020016040519081016040528093929190818152602001838360200280828437600081840152601f19601f820116905080830192505050505050508b8b80806020026020016040519081016040528093929190818152602001838360200280828437600092019190915250610c4b92505050565b808989600081811061073257fe5b604080516370a0823160e01b81523060048201529051602092830294909401356001600160a01b0316936370a08231935060248083019392829003018186803b15801561077e57600080fd5b505afa158015610792573d6000803e3d6000fd5b505050506040513d60208110156107a857600080fd5b505110156107e1576040805162461bcd60e51b81526020600482015260016024820152603160f91b604482015290519081900360640190fd5b50505b50505050505050505050565b7f000000000000000000000000000000000000000000000000000000000000000081565b7f00000000000000000000000000000000000000000000000000000000000000006001600160a01b03163314610875576040805162461bcd60e51b81526020600482015260016024820152606360f81b604482015290519081900360640190fd5b8383600081811061088257fe5b905060200201356001600160a01b03166001600160a01b031663a9059cbb878760008181106108ad57fe5b905060200201356001600160a01b0316848460008181106108ca57fe5b905060200201356040518363ffffffff1660e01b815260040180836001600160a01b03166001600160a01b0316815260200182815260200192505050602060405180830381600087803b15801561092057600080fd5b505af1158015610934573d6000803e3d6000fd5b505050506040513d602081101561094a57600080fd5b505161095257fe5b6109f082828080602002602001604051908101604052809392919081815260200183836020028082843760009201919091525050604080516020808c0282810182019093528b82529093508b92508a91829185019084908082843760009201919091525050604080516020808b0282810182019093528a82529093508a925089918291850190849080828437600092019190915250610c4b92505050565b505050505050565b7f00000000000000000000000000000000000000000000000000000000000000006001600160a01b03163314610a59576040805162461bcd60e51b81526020600482015260016024820152606360f81b604482015290519081900360640190fd5b6040805163a9059cbb60e01b81523360048201526024810183905290516001600160a01b0384169163a9059cbb9160448083019260209291908290030181600087803b158015610aa857600080fd5b505af1158015610abc573d6000803e3d6000fd5b505050506040513d6020811015610ad257600080fd5b5051610ada57fe5b5050565b6060600284511015610b1b576040805162461bcd60e51b81526020600482015260016024820152601960fa1b604482015290519081900360640190fd5b835167ffffffffffffffff81118015610b3357600080fd5b50604051908082528060200260200182016040528015610b5d578160200160208202803683370190505b5090508481600081518110610b6e57fe5b60200260200101818152505060005b6001855103811015610c4157600080610bd3898481518110610b9b57fe5b6020026020010151888581518110610baf57fe5b6020026020010151898660010181518110610bc657fe5b6020026020010151610e80565b91509150610c1d848481518110610be657fe5b60200260200101518383898781518110610bfc57fe5b6020026020010151898881518110610c1057fe5b6020026020010151610f44565b848460010181518110610c2c57fe5b60209081029190910101525050600101610b7d565b5095945050505050565b60005b6001825103811015610e7a576000610c8f838381518110610c6b57fe5b6020026020010151848460010181518110610c8257fe5b6020026020010151611036565b509050600080826001600160a01b0316858581518110610cab57fe5b60200260200101516001600160a01b031614610cdf57868460010181518110610cd057fe5b60200260200101516000610cf9565b6000878560010181518110610cf057fe5b60200260200101515b91509150600060028651038510610d105730610d28565b868560010181518110610d1f57fe5b60200260200101515b9050868581518110610d3657fe5b60200260200101516001600160a01b031663022c0d9f848484600067ffffffffffffffff81118015610d6757600080fd5b506040519080825280601f01601f191660200182016040528015610d92576020820181803683370190505b506040518563ffffffff1660e01b815260040180858152602001848152602001836001600160a01b03166001600160a01b0316815260200180602001828103825283818151815260200191508051906020019080838360005b83811015610e03578181015183820152602001610deb565b50505050905090810190601f168015610e305780820380516001836020036101000a031916815260200191505b5095505050505050600060405180830381600087803b158015610e5257600080fd5b505af1158015610e66573d6000803e3d6000fd5b505060019096019550610c4e945050505050565b50505050565b6000806000610e8f8585611036565b509050600080876001600160a01b0316630902f1ac6040518163ffffffff1660e01b815260040160606040518083038186803b158015610ece57600080fd5b505afa158015610ee2573d6000803e3d6000fd5b505050506040513d6060811015610ef857600080fd5b5080516020909101516dffffffffffffffffffffffffffff91821693501690506001600160a01b0387811690841614610f32578082610f35565b81815b90999098509650505050505050565b6000808611610f7e576040805162461bcd60e51b81526020600482015260016024820152606560f81b604482015290519081900360640190fd5b600085118015610f8e5750600084115b610fc3576040805162461bcd60e51b81526020600482015260016024820152603360f91b604482015290519081900360640190fd5b6000610fe5610fd8848663ffffffff61106716565b889063ffffffff6110c516565b90506000610ff9828763ffffffff6110c516565b9050600061101d836110118a8863ffffffff6110c516565b9063ffffffff61113116565b905080828161102857fe5b049998505050505050505050565b600080826001600160a01b0316846001600160a01b03161061105957828461105c565b83835b909590945092505050565b808203828111156110bf576040805162461bcd60e51b815260206004820152601560248201527f64732d6d6174682d7375622d756e646572666c6f770000000000000000000000604482015290519081900360640190fd5b92915050565b60008115806110e0575050808202828282816110dd57fe5b04145b6110bf576040805162461bcd60e51b815260206004820152601460248201527f64732d6d6174682d6d756c2d6f766572666c6f77000000000000000000000000604482015290519081900360640190fd5b808201828110156110bf576040805162461bcd60e51b815260206004820152601460248201527f64732d6d6174682d6164642d6f766572666c6f77000000000000000000000000604482015290519081900360640190fdfea2646970667358221220ee05061dda15cc7a2c241587c53290cb3fd3e00c8fe3a5345eace708de78112464736f6c63430006060033",
  "linkReferences": {},
  "deployedLinkReferences": {}
}