{
  "_format": "hh-sol-artifact-1",
  "contractName": "MultiSwapV2",
  "sourceName": "contracts/MultiSwapV2.sol",
  "abi": [
    {
      "inputs": [],
      "stateMutability": "nonpayable",
      "type": "constructor"
    },
    {
      "inputs": [],
      "name": "owner",
      "outputs": [
        {
          "internalType": "address",
          "name": "",
          "type": "address"
        }
      ],
      "stateMutability": "view",
      "type": "function"
    },
    {
      "inputs": [
        {
          "internalType": "uint256",
          "name": "amountIn",
          "type": "uint256"
        },
        {
          "internalType": "address[]",
          "name": "pairs",
          "type": "address[]"
        },
        {
          "internalType": "address[]",
          "name": "path",
          "type": "address[]"
        },
        {
          "internalType": "uint256[]",
          "name": "fee",
          "type": "uint256[]"
        },
        {
          "internalType": "uint256[]",
          "name": "fee_scale",
          "type": "uint256[]"
        }
      ],
      "name": "swap",
      "outputs": [],
      "stateMutability": "nonpayable",
      "type": "function"
    },
    {
      "inputs": [
        {
          "internalType": "address[]",
          "name": "pairs",
          "type": "address[]"
        },
        {
          "internalType": "address[]",
          "name": "path",
          "type": "address[]"
        },
        {
          "internalType": "uint256[]",
          "name": "amounts",
          "type": "uint256[]"
        }
      ],
      "name": "swapExact",
      "outputs": [],
      "stateMutability": "nonpayable",
      "type": "function"
    },
    {
      "inputs": [
        {
          "internalType": "address",
          "name": "token",
          "type": "address"
        },
        {
          "internalType": "uint256",
          "name": "amount",
          "type": "uint256"
        }
      ],
      "name": "withdraw",
      "outputs": [],
      "stateMutability": "nonpayable",
      "type": "function"
    }
  ],
  "bytecode": "0x60a060405234801561001057600080fd5b5033606081901b60805261128861004060003980610326528061084e52806108725280610a5652506112886000f3fe608060405234801561001057600080fd5b506004361061004c5760003560e01c80638978f7f7146100515780638da5cb5b146101c0578063d9d5a9b7146101e4578063f3fef3a3146102f8575b600080fd5b6101be600480360360a081101561006757600080fd5b8135919081019060408101602082013564010000000081111561008957600080fd5b82018360208201111561009b57600080fd5b803590602001918460208302840111640100000000831117156100bd57600080fd5b9193909290916020810190356401000000008111156100db57600080fd5b8201836020820111156100ed57600080fd5b8035906020019184602083028401116401000000008311171561010f57600080fd5b91939092909160208101903564010000000081111561012d57600080fd5b82018360208201111561013f57600080fd5b8035906020019184602083028401116401000000008311171561016157600080fd5b91939092909160208101903564010000000081111561017f57600080fd5b82018360208201111561019157600080fd5b803590602001918460208302840111640100000000831117156101b357600080fd5b509092509050610324565b005b6101c861084c565b604080516001600160a01b039092168252519081900360200190f35b6101be600480360360608110156101fa57600080fd5b81019060208101813564010000000081111561021557600080fd5b82018360208201111561022757600080fd5b8035906020019184602083028401116401000000008311171561024957600080fd5b91939092909160208101903564010000000081111561026757600080fd5b82018360208201111561027957600080fd5b8035906020019184602083028401116401000000008311171561029b57600080fd5b9193909290916020810190356401000000008111156102b957600080fd5b8201836020820111156102cb57600080fd5b803590602001918460208302840111640100000000831117156102ed57600080fd5b509092509050610870565b6101be6004803603604081101561030e57600080fd5b506001600160a01b038135169060200135610a54565b7f00000000000000000000000000000000000000000000000000000000000000006001600160a01b03163314610385576040805162461bcd60e51b81526020600482015260016024820152606360f81b604482015290519081900360640190fd5b6060610468898980806020026020016040519081016040528093929190818152602001838360200280828437600081840152601f19601f820116905080830192505050505050508b89898080602002602001604051908101604052809392919081815260200183836020028082843760009201919091525050604080516020808d0282810182019093528c82529093508c92508b91829185019084908082843760009201919091525050604080516020808c0282810182019093528b82529093508b92508a918291850190849080828437600092019190915250610b5392505050565b9050898160028151811061047857fe5b6020026020010151106108405760008054600181810183558280527f290decd9548b62a8d60345a988386fc84ba6bc95484008f6362f93160ef3e5639091018c905582518291849181106104c857fe5b6020908102919091018101518254600181018455600093845291909220015581518190839060029081106104f857fe5b60209081029190910181015182546001810184556000938452918320909101558888828161052257fe5b604080517f70a082310000000000000000000000000000000000000000000000000000000081523060048201529051602092830294909401356001600160a01b0316936370a08231935060248083019392829003018186803b15801561058757600080fd5b505afa15801561059b573d6000803e3d6000fd5b505050506040513d60208110156105b157600080fd5b5051905088886000816105c057fe5b905060200201356001600160a01b03166001600160a01b031663a9059cbb8c8c60008181106105eb57fe5b905060200201356001600160a01b03168e6040518363ffffffff1660e01b815260040180836001600160a01b03166001600160a01b0316815260200182815260200192505050602060405180830381600087803b15801561064b57600080fd5b505af115801561065f573d6000803e3d6000fd5b505050506040513d602081101561067557600080fd5b505161067d57fe5b61074b828054806020026020016040519081016040528092919081815260200182805480156106cb57602002820191906000526020600020905b8154815260200190600101908083116106b7575b50505050508c8c80806020026020016040519081016040528093929190818152602001838360200280828437600081840152601f19601f820116905080830192505050505050508b8b80806020026020016040519081016040528093929190818152602001838360200280828437600092019190915250610cdc92505050565b808989600081811061075957fe5b604080517f70a082310000000000000000000000000000000000000000000000000000000081523060048201529051602092830294909401356001600160a01b0316936370a08231935060248083019392829003018186803b1580156107be57600080fd5b505afa1580156107d2573d6000803e3d6000fd5b505050506040513d60208110156107e857600080fd5b5051101561083d576040805162461bcd60e51b815260206004820152600160248201527f6200000000000000000000000000000000000000000000000000000000000000604482015290519081900360640190fd5b50505b50505050505050505050565b7f000000000000000000000000000000000000000000000000000000000000000081565b7f00000000000000000000000000000000000000000000000000000000000000006001600160a01b031633146108d1576040805162461bcd60e51b81526020600482015260016024820152606360f81b604482015290519081900360640190fd5b838360008181106108de57fe5b905060200201356001600160a01b03166001600160a01b031663a9059cbb8787600081811061090957fe5b905060200201356001600160a01b03168484600081811061092657fe5b905060200201356040518363ffffffff1660e01b815260040180836001600160a01b03166001600160a01b0316815260200182815260200192505050602060405180830381600087803b15801561097c57600080fd5b505af1158015610990573d6000803e3d6000fd5b505050506040513d60208110156109a657600080fd5b50516109ae57fe5b610a4c82828080602002602001604051908101604052809392919081815260200183836020028082843760009201919091525050604080516020808c0282810182019093528b82529093508b92508a91829185019084908082843760009201919091525050604080516020808b0282810182019093528a82529093508a925089918291850190849080828437600092019190915250610cdc92505050565b505050505050565b7f00000000000000000000000000000000000000000000000000000000000000006001600160a01b03163314610ab5576040805162461bcd60e51b81526020600482015260016024820152606360f81b604482015290519081900360640190fd5b604080517fa9059cbb0000000000000000000000000000000000000000000000000000000081523360048201526024810183905290516001600160a01b0384169163a9059cbb9160448083019260209291908290030181600087803b158015610b1d57600080fd5b505af1158015610b31573d6000803e3d6000fd5b505050506040513d6020811015610b4757600080fd5b5051610b4f57fe5b5050565b6060600284511015610bac576040805162461bcd60e51b815260206004820152600160248201527f6400000000000000000000000000000000000000000000000000000000000000604482015290519081900360640190fd5b835167ffffffffffffffff81118015610bc457600080fd5b50604051908082528060200260200182016040528015610bee578160200160208202803683370190505b5090508481600081518110610bff57fe5b60200260200101818152505060005b6001855103811015610cd257600080610c64898481518110610c2c57fe5b6020026020010151888581518110610c4057fe5b6020026020010151898660010181518110610c5757fe5b6020026020010151610f11565b91509150610cae848481518110610c7757fe5b60200260200101518383898781518110610c8d57fe5b6020026020010151898881518110610ca157fe5b6020026020010151610fd5565b848460010181518110610cbd57fe5b60209081029190910101525050600101610c0e565b5095945050505050565b60005b6001825103811015610f0b576000610d20838381518110610cfc57fe5b6020026020010151848460010181518110610d1357fe5b60200260200101516110ff565b509050600080826001600160a01b0316858581518110610d3c57fe5b60200260200101516001600160a01b031614610d7057868460010181518110610d6157fe5b60200260200101516000610d8a565b6000878560010181518110610d8157fe5b60200260200101515b91509150600060028651038510610da15730610db9565b868560010181518110610db057fe5b60200260200101515b9050868581518110610dc757fe5b60200260200101516001600160a01b031663022c0d9f848484600067ffffffffffffffff81118015610df857600080fd5b506040519080825280601f01601f191660200182016040528015610e23576020820181803683370190505b506040518563ffffffff1660e01b815260040180858152602001848152602001836001600160a01b03166001600160a01b0316815260200180602001828103825283818151815260200191508051906020019080838360005b83811015610e94578181015183820152602001610e7c565b50505050905090810190601f168015610ec15780820380516001836020036101000a031916815260200191505b5095505050505050600060405180830381600087803b158015610ee357600080fd5b505af1158015610ef7573d6000803e3d6000fd5b505060019096019550610cdf945050505050565b50505050565b6000806000610f2085856110ff565b509050600080876001600160a01b0316630902f1ac6040518163ffffffff1660e01b815260040160606040518083038186803b158015610f5f57600080fd5b505afa158015610f73573d6000803e3d6000fd5b505050506040513d6060811015610f8957600080fd5b5080516020909101516dffffffffffffffffffffffffffff91821693501690506001600160a01b0387811690841614610fc3578082610fc6565b81815b90999098509650505050505050565b600080861161102b576040805162461bcd60e51b815260206004820152600160248201527f6500000000000000000000000000000000000000000000000000000000000000604482015290519081900360640190fd5b60008511801561103b5750600084115b61108c576040805162461bcd60e51b815260206004820152600160248201527f6600000000000000000000000000000000000000000000000000000000000000604482015290519081900360640190fd5b60006110ae6110a1848663ffffffff61113016565b889063ffffffff61118e16565b905060006110c2828763ffffffff61118e16565b905060006110e6836110da8a8863ffffffff61118e16565b9063ffffffff6111fa16565b90508082816110f157fe5b049998505050505050505050565b600080826001600160a01b0316846001600160a01b031610611122578284611125565b83835b909590945092505050565b80820382811115611188576040805162461bcd60e51b815260206004820152601560248201527f64732d6d6174682d7375622d756e646572666c6f770000000000000000000000604482015290519081900360640190fd5b92915050565b60008115806111a9575050808202828282816111a657fe5b04145b611188576040805162461bcd60e51b815260206004820152601460248201527f64732d6d6174682d6d756c2d6f766572666c6f77000000000000000000000000604482015290519081900360640190fd5b80820182811015611188576040805162461bcd60e51b815260206004820152601460248201527f64732d6d6174682d6164642d6f766572666c6f77000000000000000000000000604482015290519081900360640190fdfea2646970667358221220560bb6bac9675076e882c588ca5fda41a4f29e38a256a5c3e7497e224aa61ace64736f6c63430006060033",
  "linkReferences": {},
  "deployedLinkReferences": {}
}