{
  "_format": "hh-sol-artifact-1",
  "contractName": "MultiSwap",
  "sourceName": "contracts/MultiSwap.sol",
  "abi": [
    {
      "inputs": [],
      "stateMutability": "nonpayable",
      "type": "constructor"
    },
    {
      "inputs": [],
      "name": "owner",
      "outputs": [
        {
          "internalType": "address",
          "name": "",
          "type": "address"
        }
      ],
      "stateMutability": "view",
      "type": "function"
    },
    {
      "inputs": [
        {
          "internalType": "address[]",
          "name": "pairs",
          "type": "address[]"
        },
        {
          "internalType": "address[]",
          "name": "path",
          "type": "address[]"
        },
        {
          "internalType": "uint256[]",
          "name": "amounts",
          "type": "uint256[]"
        }
      ],
      "name": "swap",
      "outputs": [],
      "stateMutability": "nonpayable",
      "type": "function"
    },
    {
      "inputs": [
        {
          "internalType": "address[]",
          "name": "pairs",
          "type": "address[]"
        },
        {
          "internalType": "address[]",
          "name": "path",
          "type": "address[]"
        },
        {
          "internalType": "uint256",
          "name": "fee",
          "type": "uint256"
        },
        {
          "internalType": "uint256",
          "name": "fee_scale",
          "type": "uint256"
        }
      ],
      "name": "swapExactTokensForETH",
      "outputs": [],
      "stateMutability": "nonpayable",
      "type": "function"
    },
    {
      "inputs": [
        {
          "internalType": "address",
          "name": "token",
          "type": "address"
        },
        {
          "internalType": "uint256",
          "name": "amount",
          "type": "uint256"
        }
      ],
      "name": "withdraw",
      "outputs": [],
      "stateMutability": "nonpayable",
      "type": "function"
    }
  ],
  "bytecode": "0x60a060405234801561001057600080fd5b5033606081901b608052610e28610040600039806102775280610523528061054752806106ff5250610e286000f3fe608060405234801561001057600080fd5b506004361061004c5760003560e01c80634fc93938146100515780638da5cb5b14610117578063dfbc33371461013b578063f3fef3a314610249575b600080fd5b6101156004803603608081101561006757600080fd5b810190602081018135600160201b81111561008157600080fd5b82018360208201111561009357600080fd5b803590602001918460208302840111600160201b831117156100b457600080fd5b919390929091602081019035600160201b8111156100d157600080fd5b8201836020820111156100e357600080fd5b803590602001918460208302840111600160201b8311171561010457600080fd5b919350915080359060200135610275565b005b61011f610521565b604080516001600160a01b039092168252519081900360200190f35b6101156004803603606081101561015157600080fd5b810190602081018135600160201b81111561016b57600080fd5b82018360208201111561017d57600080fd5b803590602001918460208302840111600160201b8311171561019e57600080fd5b919390929091602081019035600160201b8111156101bb57600080fd5b8201836020820111156101cd57600080fd5b803590602001918460208302840111600160201b831117156101ee57600080fd5b919390929091602081019035600160201b81111561020b57600080fd5b82018360208201111561021d57600080fd5b803590602001918460208302840111600160201b8311171561023e57600080fd5b509092509050610545565b6101156004803603604081101561025f57600080fd5b506001600160a01b0381351690602001356106fd565b7f00000000000000000000000000000000000000000000000000000000000000006001600160a01b031633146102aa57600080fd5b6000848460008181106102b957fe5b604080516370a0823160e01b81523060048201529051602092830294909401356001600160a01b0316936370a08231935060248083019392829003018186803b15801561030557600080fd5b505afa158015610319573d6000803e3d6000fd5b505050506040513d602081101561032f57600080fd5b5051905080610369576040805162461bcd60e51b81526020600482015260016024820152603160f81b604482015290519081900360640190fd5b60606103c98888600081811061037b57fe5b905060200201356001600160a01b0316838888808060200260200160405190810160405280939291908181526020018383602002808284376000920191909152508a92508991506107b79050565b9050858560008181106103d857fe5b905060200201356001600160a01b03166001600160a01b031663a9059cbb8989600081811061040357fe5b905060200201356001600160a01b03168360008151811061042057fe5b60200260200101516040518363ffffffff1660e01b815260040180836001600160a01b03166001600160a01b0316815260200182815260200192505050602060405180830381600087803b15801561047757600080fd5b505af115801561048b573d6000803e3d6000fd5b505050506040513d60208110156104a157600080fd5b50516104a957fe5b6105178189898080602002602001604051908101604052809392919081815260200183836020028082843760009201919091525050604080516020808d0282810182019093528c82529093508c92508b9182918501908490808284376000920191909152506108eb92505050565b5050505050505050565b7f000000000000000000000000000000000000000000000000000000000000000081565b7f00000000000000000000000000000000000000000000000000000000000000006001600160a01b0316331461057a57600080fd5b8383600081811061058757fe5b905060200201356001600160a01b03166001600160a01b031663a9059cbb878760008181106105b257fe5b905060200201356001600160a01b0316848460008181106105cf57fe5b905060200201356040518363ffffffff1660e01b815260040180836001600160a01b03166001600160a01b0316815260200182815260200192505050602060405180830381600087803b15801561062557600080fd5b505af1158015610639573d6000803e3d6000fd5b505050506040513d602081101561064f57600080fd5b505161065757fe5b6106f582828080602002602001604051908101604052809392919081815260200183836020028082843760009201919091525050604080516020808c0282810182019093528b82529093508b92508a91829185019084908082843760009201919091525050604080516020808b0282810182019093528a82529093508a9250899182918501908490808284376000920191909152506108eb92505050565b505050505050565b7f00000000000000000000000000000000000000000000000000000000000000006001600160a01b0316331461073257600080fd5b6040805163a9059cbb60e01b81523360048201526024810183905290516001600160a01b0384169163a9059cbb9160448083019260209291908290030181600087803b15801561078157600080fd5b505af1158015610795573d6000803e3d6000fd5b505050506040513d60208110156107ab57600080fd5b50516107b357fe5b5050565b60606002845110156107f4576040805162461bcd60e51b81526020600482015260016024820152601960f91b604482015290519081900360640190fd5b835167ffffffffffffffff8111801561080c57600080fd5b50604051908082528060200260200182016040528015610836578160200160208202803683370190505b509050848160008151811061084757fe5b60200260200101818152505060005b60018551038110156108e1576000806108998988858151811061087557fe5b602002602001015189866001018151811061088c57fe5b6020026020010151610ae8565b915091506108bd8484815181106108ac57fe5b602002602001015183838989610bac565b8484600101815181106108cc57fe5b60209081029190910101525050600101610856565b5095945050505050565b60005b6001825103811015610ae257600061092f83838151811061090b57fe5b602002602001015184846001018151811061092257fe5b6020026020010151610c9f565b509050600080826001600160a01b031685858151811061094b57fe5b60200260200101516001600160a01b03161461097f5786846001018151811061097057fe5b60200260200101516000610999565b600087856001018151811061099057fe5b60200260200101515b915091508584815181106109a957fe5b60200260200101516001600160a01b031663022c0d9f8383600289510388106109d257306109ea565b8988600101815181106109e157fe5b60200260200101515b6040805160008082526020820190925290506040518563ffffffff1660e01b815260040180858152602001848152602001836001600160a01b03166001600160a01b0316815260200180602001828103825283818151815260200191508051906020019080838360005b83811015610a6c578181015183820152602001610a54565b50505050905090810190601f168015610a995780820380516001836020036101000a031916815260200191505b5095505050505050600060405180830381600087803b158015610abb57600080fd5b505af1158015610acf573d6000803e3d6000fd5b5050600190950194506108ee9350505050565b50505050565b6000806000610af78585610c9f565b509050600080876001600160a01b0316630902f1ac6040518163ffffffff1660e01b815260040160606040518083038186803b158015610b3657600080fd5b505afa158015610b4a573d6000803e3d6000fd5b505050506040513d6060811015610b6057600080fd5b5080516020909101516dffffffffffffffffffffffffffff91821693501690506001600160a01b0387811690841614610b9a578082610b9d565b81815b90999098509650505050505050565b6000808611610be7576040805162461bcd60e51b8152602060048201526002602482015261072760f31b604482015290519081900360640190fd5b600085118015610bf75750600084115b610c2c576040805162461bcd60e51b81526020600482015260016024820152603360f81b604482015290519081900360640190fd5b6000610c4e610c41848663ffffffff610cd016565b889063ffffffff610d2e16565b90506000610c62828763ffffffff610d2e16565b90506000610c8683610c7a8a8863ffffffff610d2e16565b9063ffffffff610d9a16565b9050808281610c9157fe5b049998505050505050505050565b600080826001600160a01b0316846001600160a01b031610610cc2578284610cc5565b83835b909590945092505050565b80820382811115610d28576040805162461bcd60e51b815260206004820152601560248201527f64732d6d6174682d7375622d756e646572666c6f770000000000000000000000604482015290519081900360640190fd5b92915050565b6000811580610d4957505080820282828281610d4657fe5b04145b610d28576040805162461bcd60e51b815260206004820152601460248201527f64732d6d6174682d6d756c2d6f766572666c6f77000000000000000000000000604482015290519081900360640190fd5b80820182811015610d28576040805162461bcd60e51b815260206004820152601460248201527f64732d6d6174682d6164642d6f766572666c6f77000000000000000000000000604482015290519081900360640190fdfea26469706673582212204ee1bdd7de7411c44dd90a0236ebca5655bcd8788ec29a00a53686aefc391f0964736f6c63430006060033",
  "linkReferences": {},
  "deployedLinkReferences": {}
}